{
  "contractName": "Auction",
  "abi": [
    {
      "anonymous": false,
      "inputs": [
        {
          "indexed": false,
          "internalType": "address",
          "name": "bidder",
          "type": "address"
        },
        {
          "indexed": false,
          "internalType": "uint256",
          "name": "bid",
          "type": "uint256"
        },
        {
          "indexed": false,
          "internalType": "address",
          "name": "highestBidder",
          "type": "address"
        },
        {
          "indexed": false,
          "internalType": "uint256",
          "name": "highestBid",
          "type": "uint256"
        },
        {
          "indexed": false,
          "internalType": "uint256",
          "name": "highestBindingBid",
          "type": "uint256"
        }
      ],
      "name": "LogBid",
      "type": "event"
    },
    {
      "anonymous": false,
      "inputs": [],
      "name": "LogCanceled",
      "type": "event"
    },
    {
      "anonymous": false,
      "inputs": [
        {
          "indexed": false,
          "internalType": "address",
          "name": "withdrawer",
          "type": "address"
        },
        {
          "indexed": false,
          "internalType": "address",
          "name": "withdrawalAccount",
          "type": "address"
        },
        {
          "indexed": false,
          "internalType": "uint256",
          "name": "amount",
          "type": "uint256"
        }
      ],
      "name": "LogWithdrawal",
      "type": "event"
    },
    {
      "inputs": [],
      "name": "bidIncrement",
      "outputs": [
        {
          "internalType": "uint256",
          "name": "",
          "type": "uint256"
        }
      ],
      "stateMutability": "view",
      "type": "function",
      "constant": true
    },
    {
      "inputs": [],
      "name": "canceled",
      "outputs": [
        {
          "internalType": "bool",
          "name": "",
          "type": "bool"
        }
      ],
      "stateMutability": "view",
      "type": "function",
      "constant": true
    },
    {
      "inputs": [],
      "name": "endTimestamp",
      "outputs": [
        {
          "internalType": "uint256",
          "name": "",
          "type": "uint256"
        }
      ],
      "stateMutability": "view",
      "type": "function",
      "constant": true
    },
    {
      "inputs": [
        {
          "internalType": "address",
          "name": "",
          "type": "address"
        }
      ],
      "name": "fundsByBidder",
      "outputs": [
        {
          "internalType": "uint256",
          "name": "",
          "type": "uint256"
        }
      ],
      "stateMutability": "view",
      "type": "function",
      "constant": true
    },
    {
      "inputs": [],
      "name": "highestBidder",
      "outputs": [
        {
          "internalType": "address",
          "name": "",
          "type": "address"
        }
      ],
      "stateMutability": "view",
      "type": "function",
      "constant": true
    },
    {
      "inputs": [],
      "name": "highestBindingBid",
      "outputs": [
        {
          "internalType": "uint256",
          "name": "",
          "type": "uint256"
        }
      ],
      "stateMutability": "view",
      "type": "function",
      "constant": true
    },
    {
      "inputs": [],
      "name": "ipfsHash",
      "outputs": [
        {
          "internalType": "string",
          "name": "",
          "type": "string"
        }
      ],
      "stateMutability": "view",
      "type": "function",
      "constant": true
    },
    {
      "inputs": [],
      "name": "owner",
      "outputs": [
        {
          "internalType": "address",
          "name": "",
          "type": "address"
        }
      ],
      "stateMutability": "view",
      "type": "function",
      "constant": true
    },
    {
      "inputs": [],
      "name": "startTimestamp",
      "outputs": [
        {
          "internalType": "uint256",
          "name": "",
          "type": "uint256"
        }
      ],
      "stateMutability": "view",
      "type": "function",
      "constant": true
    },
    {
      "inputs": [
        {
          "internalType": "address",
          "name": "_owner",
          "type": "address"
        },
        {
          "internalType": "uint256",
          "name": "_bidIncrement",
          "type": "uint256"
        },
        {
          "internalType": "uint256",
          "name": "_startTimestamp",
          "type": "uint256"
        },
        {
          "internalType": "uint256",
          "name": "_endTimestamp",
          "type": "uint256"
        },
        {
          "internalType": "string",
          "name": "_ipfsHash",
          "type": "string"
        }
      ],
      "name": "createAuction",
      "outputs": [],
      "stateMutability": "nonpayable",
      "type": "function"
    },
    {
      "inputs": [],
      "name": "getHighestBid",
      "outputs": [
        {
          "internalType": "uint256",
          "name": "",
          "type": "uint256"
        }
      ],
      "stateMutability": "nonpayable",
      "type": "function"
    },
    {
      "inputs": [],
      "name": "placeBid",
      "outputs": [
        {
          "internalType": "bool",
          "name": "success",
          "type": "bool"
        }
      ],
      "stateMutability": "payable",
      "type": "function",
      "payable": true
    },
    {
      "inputs": [],
      "name": "cancelAuction",
      "outputs": [
        {
          "internalType": "bool",
          "name": "success",
          "type": "bool"
        }
      ],
      "stateMutability": "nonpayable",
      "type": "function"
    },
    {
      "inputs": [],
      "name": "withdraw",
      "outputs": [
        {
          "internalType": "bool",
          "name": "success",
          "type": "bool"
        }
      ],
      "stateMutability": "nonpayable",
      "type": "function"
    }
  ],
  "bytecode": "0x608060405234801561001057600080fd5b506111dd806100206000396000f3fe6080604052600436106100dd5760003560e01c8063a85adeab1161007f578063ce10cf8011610059578063ce10cf801461028e578063e6fd48bc146102cb578063ecfc7ecc146102f6578063f5b56c5614610314576100dd565b8063a85adeab1461020d578063b3cc167a14610238578063c623674f14610263576100dd565b80635db7bedc116100bb5780635db7bedc146101635780638da5cb5b1461018c5780638fa8b790146101b757806391f90157146101e2576100dd565b80633ccfd60b146100e25780633f9942ff1461010d5780634979440a14610138575b600080fd5b3480156100ee57600080fd5b506100f761033f565b6040516101049190610cc2565b60405180910390f35b34801561011957600080fd5b50610122610696565b60405161012f9190610cc2565b60405180910390f35b34801561014457600080fd5b5061014d6106a9565b60405161015a9190610cf6565b60405180910390f35b34801561016f57600080fd5b5061018a60048036038101906101859190610ef5565b610712565b005b34801561019857600080fd5b506101a161079f565b6040516101ae9190610f9b565b60405180910390f35b3480156101c357600080fd5b506101cc6107c3565b6040516101d99190610cc2565b60405180910390f35b3480156101ee57600080fd5b506101f761086c565b6040516102049190610f9b565b60405180910390f35b34801561021957600080fd5b50610222610892565b60405161022f9190610cf6565b60405180910390f35b34801561024457600080fd5b5061024d610898565b60405161025a9190610cf6565b60405180910390f35b34801561026f57600080fd5b5061027861089e565b604051610285919061103e565b60405180910390f35b34801561029a57600080fd5b506102b560048036038101906102b09190611060565b61092c565b6040516102c29190610cf6565b60405180910390f35b3480156102d757600080fd5b506102e0610944565b6040516102ed9190610cf6565b60405180910390f35b6102fe61094a565b60405161030b9190610cc2565b60405180910390f35b34801561032057600080fd5b50610329610be2565b6040516103369190610cf6565b60405180910390f35b60006003544310801561035f5750600560009054906101000a900460ff16155b1561036957610693565b600080600560009054906101000a900460ff16156103cb57339150600860008373ffffffffffffffffffffffffffffffffffffffff1673ffffffffffffffffffffffffffffffffffffffff168152602001908152602001600020549050610621565b60008054906101000a900473ffffffffffffffffffffffffffffffffffffffff1673ffffffffffffffffffffffffffffffffffffffff163373ffffffffffffffffffffffffffffffffffffffff16141561046957600760009054906101000a900473ffffffffffffffffffffffffffffffffffffffff16915060065490506001600960006101000a81548160ff021916908315150217905550610620565b600760009054906101000a900473ffffffffffffffffffffffffffffffffffffffff1673ffffffffffffffffffffffffffffffffffffffff163373ffffffffffffffffffffffffffffffffffffffff1614156105d957600760009054906101000a900473ffffffffffffffffffffffffffffffffffffffff169150600960009054906101000a900460ff16156105625760086000600760009054906101000a900473ffffffffffffffffffffffffffffffffffffffff1673ffffffffffffffffffffffffffffffffffffffff1673ffffffffffffffffffffffffffffffffffffffff1681526020019081526020016000205490506105d4565b60065460086000600760009054906101000a900473ffffffffffffffffffffffffffffffffffffffff1673ffffffffffffffffffffffffffffffffffffffff1673ffffffffffffffffffffffffffffffffffffffff168152602001908152602001600020546105d191906110bc565b90505b61061f565b339150600860008373ffffffffffffffffffffffffffffffffffffffff1673ffffffffffffffffffffffffffffffffffffffff1681526020019081526020016000205490505b5b5b600081141561063557600092505050610692565b80600860008473ffffffffffffffffffffffffffffffffffffffff1673ffffffffffffffffffffffffffffffffffffffff168152602001908152602001600020600082825461068491906110bc565b925050819055506001925050505b5b90565b600560009054906101000a900460ff1681565b600060086000600760009054906101000a900473ffffffffffffffffffffffffffffffffffffffff1673ffffffffffffffffffffffffffffffffffffffff1673ffffffffffffffffffffffffffffffffffffffff16815260200190815260200160002054905090565b81831061071e57610798565b4283101561072b57610798565b846000806101000a81548173ffffffffffffffffffffffffffffffffffffffff021916908373ffffffffffffffffffffffffffffffffffffffff1602179055508360018190555082600281905550816003819055508060049080519060200190610796929190610c04565b505b5050505050565b60008054906101000a900473ffffffffffffffffffffffffffffffffffffffff1681565b60008060009054906101000a900473ffffffffffffffffffffffffffffffffffffffff1673ffffffffffffffffffffffffffffffffffffffff163373ffffffffffffffffffffffffffffffffffffffff161461081e57610869565b60035443111561082d57610868565b600560009054906101000a900460ff161561084757610867565b6001600560006101000a81548160ff021916908315150217905550600190505b5b5b90565b600760009054906101000a900473ffffffffffffffffffffffffffffffffffffffff1681565b60035481565b60015481565b600480546108ab9061111f565b80601f01602080910402602001604051908101604052809291908181526020018280546108d79061111f565b80156109245780601f106108f957610100808354040283529160200191610924565b820191906000526020600020905b81548152906001019060200180831161090757829003601f168201915b505050505081565b60086020528060005260406000206000915090505481565b60025481565b600060025443101561095b57610bdf565b60035443111561096a57610bde565b600560009054906101000a900460ff161561098457610bdd565b60008054906101000a900473ffffffffffffffffffffffffffffffffffffffff1673ffffffffffffffffffffffffffffffffffffffff163373ffffffffffffffffffffffffffffffffffffffff1614156109dd57610bdc565b60003414156109eb57610bdb565b600034600860003373ffffffffffffffffffffffffffffffffffffffff1673ffffffffffffffffffffffffffffffffffffffff16815260200190815260200160002054610a389190611151565b90506006548111610a495750610bdb565b600060086000600760009054906101000a900473ffffffffffffffffffffffffffffffffffffffff1673ffffffffffffffffffffffffffffffffffffffff1673ffffffffffffffffffffffffffffffffffffffff16815260200190815260200160002054905081600860003373ffffffffffffffffffffffffffffffffffffffff1673ffffffffffffffffffffffffffffffffffffffff16815260200190815260200160002081905550808211610b1c57610b1160015483610b0b9190611151565b82610be8565b600681905550610bd4565b600760009054906101000a900473ffffffffffffffffffffffffffffffffffffffff1673ffffffffffffffffffffffffffffffffffffffff163373ffffffffffffffffffffffffffffffffffffffff1614610bd05733600760006101000a81548173ffffffffffffffffffffffffffffffffffffffff021916908373ffffffffffffffffffffffffffffffffffffffff160217905550610bc98260015483610bc49190611151565b610be8565b6006819055505b8190505b6001925050505b5b5b5b5b90565b60065481565b600081831015610bfa57829050610bfe565b8190505b92915050565b828054610c109061111f565b90600052602060002090601f016020900481019282610c325760008555610c79565b82601f10610c4b57805160ff1916838001178555610c79565b82800160010185558215610c79579182015b82811115610c78578251825591602001919060010190610c5d565b5b509050610c869190610c8a565b5090565b5b80821115610ca3576000816000905550600101610c8b565b5090565b60008115159050919050565b610cbc81610ca7565b82525050565b6000602082019050610cd76000830184610cb3565b92915050565b6000819050919050565b610cf081610cdd565b82525050565b6000602082019050610d0b6000830184610ce7565b92915050565b6000604051905090565b600080fd5b600080fd5b600073ffffffffffffffffffffffffffffffffffffffff82169050919050565b6000610d5082610d25565b9050919050565b610d6081610d45565b8114610d6b57600080fd5b50565b600081359050610d7d81610d57565b92915050565b610d8c81610cdd565b8114610d9757600080fd5b50565b600081359050610da981610d83565b92915050565b600080fd5b600080fd5b6000601f19601f8301169050919050565b7f4e487b7100000000000000000000000000000000000000000000000000000000600052604160045260246000fd5b610e0282610db9565b810181811067ffffffffffffffff82111715610e2157610e20610dca565b5b80604052505050565b6000610e34610d11565b9050610e408282610df9565b919050565b600067ffffffffffffffff821115610e6057610e5f610dca565b5b610e6982610db9565b9050602081019050919050565b82818337600083830152505050565b6000610e98610e9384610e45565b610e2a565b905082815260208101848484011115610eb457610eb3610db4565b5b610ebf848285610e76565b509392505050565b600082601f830112610edc57610edb610daf565b5b8135610eec848260208601610e85565b91505092915050565b600080600080600060a08688031215610f1157610f10610d1b565b5b6000610f1f88828901610d6e565b9550506020610f3088828901610d9a565b9450506040610f4188828901610d9a565b9350506060610f5288828901610d9a565b925050608086013567ffffffffffffffff811115610f7357610f72610d20565b5b610f7f88828901610ec7565b9150509295509295909350565b610f9581610d45565b82525050565b6000602082019050610fb06000830184610f8c565b92915050565b600081519050919050565b600082825260208201905092915050565b60005b83811015610ff0578082015181840152602081019050610fd5565b83811115610fff576000848401525b50505050565b600061101082610fb6565b61101a8185610fc1565b935061102a818560208601610fd2565b61103381610db9565b840191505092915050565b600060208201905081810360008301526110588184611005565b905092915050565b60006020828403121561107657611075610d1b565b5b600061108484828501610d6e565b91505092915050565b7f4e487b7100000000000000000000000000000000000000000000000000000000600052601160045260246000fd5b60006110c782610cdd565b91506110d283610cdd565b9250828210156110e5576110e461108d565b5b828203905092915050565b7f4e487b7100000000000000000000000000000000000000000000000000000000600052602260045260246000fd5b6000600282049050600182168061113757607f821691505b6020821081141561114b5761114a6110f0565b5b50919050565b600061115c82610cdd565b915061116783610cdd565b9250827fffffffffffffffffffffffffffffffffffffffffffffffffffffffffffffffff0382111561119c5761119b61108d565b5b82820190509291505056fea2646970667358221220f63934994bdc4618ec9a3b78c3ab5e14abadee07cd74d64dc81fd4d61255d3c264736f6c634300080c0033",
  "immutableReferences": {},
  "source": "pragma solidity ^0.8.12;\n\ncontract Auction {\n    // static\n    address public owner;\n    uint public bidIncrement;\n    uint public startTimestamp;\n    uint public endTimestamp;\n    string public ipfsHash;\n\n    // state\n    bool public canceled;\n    uint public highestBindingBid;\n    address public highestBidder;\n    mapping(address => uint256) public fundsByBidder;\n    bool ownerHasWithdrawn;\n\n    event LogBid(address bidder, uint bid, address highestBidder, uint highestBid, uint highestBindingBid);\n    event LogWithdrawal(address withdrawer, address withdrawalAccount, uint amount);\n    event LogCanceled();\n\n    function createAuction(address _owner, uint _bidIncrement, uint _startTimestamp, uint _endTimestamp, string memory _ipfsHash)\n     public\n      {\n        if (_startTimestamp >= _endTimestamp) return;\n        if (_startTimestamp < block.timestamp) return;\n\n        owner = _owner;\n        bidIncrement = _bidIncrement;\n        startTimestamp = _startTimestamp;\n        endTimestamp = _endTimestamp;\n        ipfsHash = _ipfsHash;\n    }\n\n    function getHighestBid() public\n        returns (uint)\n    {\n        return fundsByBidder[highestBidder];\n    }\n\n    function placeBid() public\n        payable\n        onlyAfterStart\n        onlyBeforeEnd\n        onlyNotCanceled\n        onlyNotOwner\n        returns (bool success)\n    {\n        // reject payments of 0 ETH\n        if (msg.value == 0) return success;\n\n        // calculate the user's total bid based on the current amount they've sent to the contract\n        // plus whatever has been sent with this transaction\n        uint newBid = fundsByBidder[msg.sender] + msg.value;\n\n        // if the user isn't even willing to overbid the highest binding bid, there's nothing for us\n        // to do except revert the transaction.\n        if (newBid <= highestBindingBid) return success;\n\n        // grab the previous highest bid (before updating fundsByBidder, in case msg.sender is the\n        // highestBidder and is just increasing their maximum bid).\n        uint highestBid = fundsByBidder[highestBidder];\n\n        fundsByBidder[msg.sender] = newBid;\n\n        if (newBid <= highestBid) {\n            // if the user has overbid the highestBindingBid but not the highestBid, we simply\n            // increase the highestBindingBid and leave highestBidder alone.\n\n            // note that this case is impossible if msg.sender == highestBidder because you can never\n            // bid less ETH than you've already bid.\n\n            highestBindingBid = min(newBid + bidIncrement, highestBid);\n        } else {\n            // if msg.sender is already the highest bidder, they must simply be wanting to raise\n            // their maximum bid, in which case we shouldn't increase the highestBindingBid.\n\n            // if the user is NOT highestBidder, and has overbid highestBid completely, we set them\n            // as the new highestBidder and recalculate highestBindingBid.\n\n            if (msg.sender != highestBidder) {\n                highestBidder = msg.sender;\n                highestBindingBid = min(newBid, highestBid + bidIncrement);\n            }\n            highestBid = newBid;\n        }\n\n        return true;\n    }\n\n    function min(uint a, uint b)\n        private\n\n        returns (uint)\n    {\n        if (a < b) return a;\n        return b;\n    }\n\n    function cancelAuction() public\n        onlyOwner\n        onlyBeforeEnd\n        onlyNotCanceled\n        returns (bool success)\n    {\n        canceled = true;\n        return true;\n    }\n\n    function withdraw() public\n        onlyEndedOrCanceled\n        returns (bool success)\n    {\n        address withdrawalAccount;\n        uint withdrawalAmount;\n\n        if (canceled) {\n            // if the auction was canceled, everyone should simply be allowed to withdraw their funds\n            withdrawalAccount = msg.sender;\n            withdrawalAmount = fundsByBidder[withdrawalAccount];\n\n        } else {\n            // the auction finished without being canceled\n\n            if (msg.sender == owner) {\n                // the auction's owner should be allowed to withdraw the highestBindingBid\n                withdrawalAccount = highestBidder;\n                withdrawalAmount = highestBindingBid;\n                ownerHasWithdrawn = true;\n\n            } else if (msg.sender == highestBidder) {\n                // the highest bidder should only be allowed to withdraw the difference between their\n                // highest bid and the highestBindingBid\n                withdrawalAccount = highestBidder;\n                if (ownerHasWithdrawn) {\n                    withdrawalAmount = fundsByBidder[highestBidder];\n                } else {\n                    withdrawalAmount = fundsByBidder[highestBidder] - highestBindingBid;\n                }\n\n            } else {\n                // anyone who participated but did not win the auction should be allowed to withdraw\n                // the full amount of their funds\n                withdrawalAccount = msg.sender;\n                withdrawalAmount = fundsByBidder[withdrawalAccount];\n            }\n        }\n\n        if (withdrawalAmount == 0) return false;\n\n        fundsByBidder[withdrawalAccount] -= withdrawalAmount;\n\n        // send the funds\n\n\n\n        return true;\n    }\n\n    modifier onlyOwner {\n        if (msg.sender != owner) return;\n        _;\n    }\n\n    modifier onlyNotOwner {\n        if (msg.sender == owner) return;\n        _;\n    }\n\n    modifier onlyAfterStart {\n        if (block.number < startTimestamp) return;\n        _;\n    }\n\n    modifier onlyBeforeEnd {\n        if (block.number > endTimestamp) return;\n        _;\n    }\n\n    modifier onlyNotCanceled {\n        if (canceled) return;\n        _;\n    }\n\n    modifier onlyEndedOrCanceled {\n        if (block.number < endTimestamp && !canceled) return;\n        _;\n    }\n}\n\n\n",
  "sourcePath": "/home/dev/Desktop/Sol/eatTheBlocks/programming_dai/contracts/Auction.sol",
  "compiler": {
    "name": "solc",
    "version": "0.8.12+commit.f00d7308.Emscripten.clang"
  },
  "schemaVersion": "3.4.5",
  "updatedAt": "2022-05-07T00:59:25.540Z",
  "networkType": "ethereum",
  "devdoc": {
    "kind": "dev",
    "methods": {},
    "version": 1
  },
  "userdoc": {
    "kind": "user",
    "methods": {},
    "version": 1
  }
}